10010Eletropaulo                         00500050001123402312011111111111111
10011SAAE                                00050000001123402312011111111111112
10012GVT                                 00040000001123402312011111111111113
10013VIVO                                00001010341123402312011111111111114
10014Soroca                              00100000341123402312011111111111115
10015Ze da Esquina                       00200000341123402312011111111111116
10010Eletropaulo                         00300000341123402312011111111111111
10016TIM                                 00400000341123402312011111111111119
10017FABRI                               00500000002123402312000000000000000
10018MadMax                              00500000002123402312000000000000000
